{
  "transactions": [
    {
      "hash": "0xe46f44c345bc1cb9f8c309c6210b4b09edbb34971a3135f37f18a8d05c3c10e5",
      "transactionType": "CALL",
      "contractName": null,
      "contractAddress": "0x9bda12d3f4afff285eed11b19e84e7a2cdfb4561",
      "function": "approve(address,uint256)",
      "arguments": [
        "0xaF3F28f2b30417a33fBeE349a3e19eAf19Ad4586",
        "100000"
      ],
      "transaction": {
        "from": "0x484826732d75d6a8018bfad3468bd84f64614268",
        "to": "0x9bda12d3f4afff285eed11b19e84e7a2cdfb4561",
        "gas": "0x91a2",
        "value": "0x0",
        "input": "0x095ea7b3000000000000000000000000af3f28f2b30417a33fbee349a3e19eaf19ad458600000000000000000000000000000000000000000000000000000000000186a0",
        "nonce": "0x62",
        "chainId": "0x221"
      },
      "additionalContracts": [],
      "isFixedGasLimit": false
    },
    {
      "hash": "0xe9767bcb0f7e4744863aed657acca64f188fb944207f00647ea9780009a962c9",
      "transactionType": "CALL",
      "contractName": null,
      "contractAddress": "0x02846c95ff01ffadcdfbcd9fe104959f51602600",
      "function": "approve(address,uint256)",
      "arguments": [
        "0xaF3F28f2b30417a33fBeE349a3e19eAf19Ad4586",
        "100000"
      ],
      "transaction": {
        "from": "0x484826732d75d6a8018bfad3468bd84f64614268",
        "to": "0x02846c95ff01ffadcdfbcd9fe104959f51602600",
        "gas": "0x91a2",
        "value": "0x0",
        "input": "0x095ea7b3000000000000000000000000af3f28f2b30417a33fbee349a3e19eaf19ad458600000000000000000000000000000000000000000000000000000000000186a0",
        "nonce": "0x63",
        "chainId": "0x221"
      },
      "additionalContracts": [],
      "isFixedGasLimit": false
    },
    {
      "hash": "0x8114259a58f979d0a87b88764ca5c3e894f81f5b52b2ed3921014cf522b661a4",
      "transactionType": "CALL",
      "contractName": null,
      "contractAddress": "0xaf3f28f2b30417a33fbee349a3e19eaf19ad4586",
      "function": "addLiquidity(uint256,uint256)",
      "arguments": [
        "100000",
        "100000"
      ],
      "transaction": {
        "from": "0x484826732d75d6a8018bfad3468bd84f64614268",
        "to": "0xaf3f28f2b30417a33fbee349a3e19eaf19ad4586",
        "gas": "0x31ac9",
        "value": "0x0",
        "input": "0x9cd441da00000000000000000000000000000000000000000000000000000000000186a000000000000000000000000000000000000000000000000000000000000186a0",
        "nonce": "0x64",
        "chainId": "0x221"
      },
      "additionalContracts": [],
      "isFixedGasLimit": false
    }
  ],
  "receipts": [
    {
      "status": "0x1",
      "cumulativeGasUsed": "0x6970",
      "logs": [
        {
          "address": "0x9bda12d3f4afff285eed11b19e84e7a2cdfb4561",
          "topics": [
            "0x8c5be1e5ebec7d5bd14f71427d1e84f3dd0314c0f7b2291e5b200ac8c7c3b925",
            "0x000000000000000000000000484826732d75d6a8018bfad3468bd84f64614268",
            "0x000000000000000000000000af3f28f2b30417a33fbee349a3e19eaf19ad4586"
          ],
          "data": "0x00000000000000000000000000000000000000000000000000000000000186a0",
          "blockHash": "0xb58a16fade54efe7c945c621af843ce5a32fc3d970ab87a9cb0620f15ce5fea3",
          "blockNumber": "0x43880f3",
          "transactionHash": "0xe46f44c345bc1cb9f8c309c6210b4b09edbb34971a3135f37f18a8d05c3c10e5",
          "transactionIndex": "0x0",
          "logIndex": "0x0",
          "removed": false
        }
      ],
      "logsBloom": "0x00000000000000000000000000000000000000000000000000000000000000100000000000000000000000000000000000000000000010001000000000200000000000000000000000000000000000000000000000000000000000000004000000000000000000000000000000000000000000000000000000000000000800000000000800000000000000000000000000000000000000000000000000000000020000000000000000000000000000000000000000000000000000000000000000000040000000000000000000000000000000000080000000000000000000000010000000000000000000000000000000000000000010000000000000000000",
      "type": "0x2",
      "transactionHash": "0xe46f44c345bc1cb9f8c309c6210b4b09edbb34971a3135f37f18a8d05c3c10e5",
      "transactionIndex": "0x0",
      "blockHash": "0xb58a16fade54efe7c945c621af843ce5a32fc3d970ab87a9cb0620f15ce5fea3",
      "blockNumber": "0x43880f3",
      "gasUsed": "0x6970",
      "effectiveGasPrice": "0x64",
      "from": "0x484826732d75d6a8018bfad3468bd84f64614268",
      "to": "0x9bda12d3f4afff285eed11b19e84e7a2cdfb4561",
      "contractAddress": null
    },
    {
      "status": "0x1",
      "cumulativeGasUsed": "0x6970",
      "logs": [
        {
          "address": "0x02846c95ff01ffadcdfbcd9fe104959f51602600",
          "topics": [
            "0x8c5be1e5ebec7d5bd14f71427d1e84f3dd0314c0f7b2291e5b200ac8c7c3b925",
            "0x000000000000000000000000484826732d75d6a8018bfad3468bd84f64614268",
            "0x000000000000000000000000af3f28f2b30417a33fbee349a3e19eaf19ad4586"
          ],
          "data": "0x00000000000000000000000000000000000000000000000000000000000186a0",
          "blockHash": "0xf4c6a1052097761165f8ac0de246798e0eb000af11e7c90d7d30f4c8929a03ee",
          "blockNumber": "0x43880f4",
          "transactionHash": "0xe9767bcb0f7e4744863aed657acca64f188fb944207f00647ea9780009a962c9",
          "transactionIndex": "0x0",
          "logIndex": "0x0",
          "removed": false
        }
      ],
      "logsBloom": "0x00000000000000000000000000000000000000000000000000000000000000100000000000000000000000000000000000000000000010001000000000200000000000000000000000000000000000000000000000000000000000000004000000000000000000000000000000000000000000000000000000100000000000000000000000000000000000800000000000000000000000000000000000000000020000000000000000000000000000000000000000000000000000000000000000000040000000000000400000000000000000000080000000000000000000000010000000000000000000000000000000000000000000000000000000000000",
      "type": "0x2",
      "transactionHash": "0xe9767bcb0f7e4744863aed657acca64f188fb944207f00647ea9780009a962c9",
      "transactionIndex": "0x0",
      "blockHash": "0xf4c6a1052097761165f8ac0de246798e0eb000af11e7c90d7d30f4c8929a03ee",
      "blockNumber": "0x43880f4",
      "gasUsed": "0x6970",
      "effectiveGasPrice": "0x64",
      "from": "0x484826732d75d6a8018bfad3468bd84f64614268",
      "to": "0x02846c95ff01ffadcdfbcd9fe104959f51602600",
      "contractAddress": null
    },
    {
      "status": "0x1",
      "cumulativeGasUsed": "0x2db21",
      "logs": [
        {
          "address": "0x9bda12d3f4afff285eed11b19e84e7a2cdfb4561",
          "topics": [
            "0xddf252ad1be2c89b69c2b068fc378daa952ba7f163c4a11628f55a4df523b3ef",
            "0x000000000000000000000000484826732d75d6a8018bfad3468bd84f64614268",
            "0x000000000000000000000000af3f28f2b30417a33fbee349a3e19eaf19ad4586"
          ],
          "data": "0x00000000000000000000000000000000000000000000000000000000000186a0",
          "blockHash": "0xf4c6a1052097761165f8ac0de246798e0eb000af11e7c90d7d30f4c8929a03ee",
          "blockNumber": "0x43880f4",
          "transactionHash": "0x8114259a58f979d0a87b88764ca5c3e894f81f5b52b2ed3921014cf522b661a4",
          "transactionIndex": "0x2",
          "logIndex": "0x1",
          "removed": false
        },
        {
          "address": "0x02846c95ff01ffadcdfbcd9fe104959f51602600",
          "topics": [
            "0xddf252ad1be2c89b69c2b068fc378daa952ba7f163c4a11628f55a4df523b3ef",
            "0x000000000000000000000000484826732d75d6a8018bfad3468bd84f64614268",
            "0x000000000000000000000000af3f28f2b30417a33fbee349a3e19eaf19ad4586"
          ],
          "data": "0x00000000000000000000000000000000000000000000000000000000000186a0",
          "blockHash": "0xf4c6a1052097761165f8ac0de246798e0eb000af11e7c90d7d30f4c8929a03ee",
          "blockNumber": "0x43880f4",
          "transactionHash": "0x8114259a58f979d0a87b88764ca5c3e894f81f5b52b2ed3921014cf522b661a4",
          "transactionIndex": "0x2",
          "logIndex": "0x2",
          "removed": false
        },
        {
          "address": "0xaf3f28f2b30417a33fbee349a3e19eaf19ad4586",
          "topics": [
            "0xddf252ad1be2c89b69c2b068fc378daa952ba7f163c4a11628f55a4df523b3ef",
            "0x0000000000000000000000000000000000000000000000000000000000000000",
            "0x000000000000000000000000484826732d75d6a8018bfad3468bd84f64614268"
          ],
          "data": "0x00000000000000000000000000000000000000000000000000000000000186a0",
          "blockHash": "0xf4c6a1052097761165f8ac0de246798e0eb000af11e7c90d7d30f4c8929a03ee",
          "blockNumber": "0x43880f4",
          "transactionHash": "0x8114259a58f979d0a87b88764ca5c3e894f81f5b52b2ed3921014cf522b661a4",
          "transactionIndex": "0x2",
          "logIndex": "0x3",
          "removed": false
        }
      ],
      "logsBloom": "0x80000000000000000000000000000000000000000000000000000000000000100000000000000000000000000000000000000000000010001000000000000000000000000000000000000008000000000000000000000000008000000004000000000000020000000000000000000800000000000000000000100010000800000000800800000000000000800000000000000000000000000000000000000000000000000000000000000000000000000000000000000000000000000000000000000042000000000000400000000000000000000080000000000000000020000000000000000000000000000000000000000000000010000000000000000000",
      "type": "0x2",
      "transactionHash": "0x8114259a58f979d0a87b88764ca5c3e894f81f5b52b2ed3921014cf522b661a4",
      "transactionIndex": "0x2",
      "blockHash": "0xf4c6a1052097761165f8ac0de246798e0eb000af11e7c90d7d30f4c8929a03ee",
      "blockNumber": "0x43880f4",
      "gasUsed": "0x21f72",
      "effectiveGasPrice": "0x64",
      "from": "0x484826732d75d6a8018bfad3468bd84f64614268",
      "to": "0xaf3f28f2b30417a33fbee349a3e19eaf19ad4586",
      "contractAddress": null
    }
  ],
  "libraries": [],
  "pending": [],
  "returns": {},
  "timestamp": 1759018304861,
  "chain": 545,
  "commit": "c651757"
}