{
  "transactions": [
    {
      "hash": "0xd367c148800b2b88c7e22d4de8e8897fbbbd83d82fa36edafb064fbfb10c6856",
      "transactionType": "CALL",
      "contractName": null,
      "contractAddress": "0x9bda12d3f4afff285eed11b19e84e7a2cdfb4561",
      "function": "approve(address,uint256)",
      "arguments": [
        "0xeAf202621b9EF670c862d1625374e698bCfe833C",
        "100000000000000000000000"
      ],
      "transaction": {
        "from": "0x484826732d75d6a8018bfad3468bd84f64614268",
        "to": "0x9bda12d3f4afff285eed11b19e84e7a2cdfb4561",
        "gas": "0x91f4",
        "value": "0x0",
        "input": "0x095ea7b3000000000000000000000000eaf202621b9ef670c862d1625374e698bcfe833c00000000000000000000000000000000000000000000152d02c7e14af6800000",
        "nonce": "0x74",
        "chainId": "0x221"
      },
      "additionalContracts": [],
      "isFixedGasLimit": false
    },
    {
      "hash": "0x984ab48b9e1720349a4d5ac669dd5a3fe1042c5334b09512e6299524c73f0545",
      "transactionType": "CALL",
      "contractName": null,
      "contractAddress": "0xa3d83ca946697fb88db35dd5dac6e6ace4746951",
      "function": "approve(address,uint256)",
      "arguments": [
        "0xeAf202621b9EF670c862d1625374e698bCfe833C",
        "100000000000000000000000"
      ],
      "transaction": {
        "from": "0x484826732d75d6a8018bfad3468bd84f64614268",
        "to": "0xa3d83ca946697fb88db35dd5dac6e6ace4746951",
        "gas": "0xfd53",
        "value": "0x0",
        "input": "0x095ea7b3000000000000000000000000eaf202621b9ef670c862d1625374e698bcfe833c00000000000000000000000000000000000000000000152d02c7e14af6800000",
        "nonce": "0x75",
        "chainId": "0x221"
      },
      "additionalContracts": [],
      "isFixedGasLimit": false
    },
    {
      "hash": "0x7abcd81ccc42a947bf7c7bf6d96ac3414c77e3b1c1be5babf574791dc4fbf1fb",
      "transactionType": "CALL",
      "contractName": null,
      "contractAddress": "0xeaf202621b9ef670c862d1625374e698bcfe833c",
      "function": "addLiquidity(uint256,uint256)",
      "arguments": [
        "100000000000000000000000",
        "100000000000000000000000"
      ],
      "transaction": {
        "from": "0x484826732d75d6a8018bfad3468bd84f64614268",
        "to": "0xeaf202621b9ef670c862d1625374e698bcfe833c",
        "gas": "0x1a1bc",
        "value": "0x0",
        "input": "0x9cd441da00000000000000000000000000000000000000000000152d02c7e14af680000000000000000000000000000000000000000000000000152d02c7e14af6800000",
        "nonce": "0x76",
        "chainId": "0x221"
      },
      "additionalContracts": [],
      "isFixedGasLimit": false
    }
  ],
  "receipts": [
    {
      "status": "0x1",
      "cumulativeGasUsed": "0x69ac",
      "logs": [
        {
          "address": "0x9bda12d3f4afff285eed11b19e84e7a2cdfb4561",
          "topics": [
            "0x8c5be1e5ebec7d5bd14f71427d1e84f3dd0314c0f7b2291e5b200ac8c7c3b925",
            "0x000000000000000000000000484826732d75d6a8018bfad3468bd84f64614268",
            "0x000000000000000000000000eaf202621b9ef670c862d1625374e698bcfe833c"
          ],
          "data": "0x00000000000000000000000000000000000000000000152d02c7e14af6800000",
          "blockHash": "0x9662a6c3c06ed3f1d316b1e6d8f4a9a8b572f9db1f49c35211635bcf3370b9cb",
          "blockNumber": "0x43890b7",
          "blockTimestamp": "0x68d88520",
          "transactionHash": "0xd367c148800b2b88c7e22d4de8e8897fbbbd83d82fa36edafb064fbfb10c6856",
          "transactionIndex": "0x0",
          "logIndex": "0x0",
          "removed": false
        }
      ],
      "logsBloom": "0x00000000000000000000000000000000000000000000000000000000000000000020000000000000000000000000000000000000000000001000000000200000000000000000000000000000000000000000000000000000000000000004000000000000000000000000000000000000000000000000000000000000000800000000000800000000000000000000000000000000000000000000000000000000020000000000000000000000000000000000000000000000000000000000000000000040000000000000000000040000000000000000000000000000040000000010000000000000000000000000000000000000000010000000000000000000",
      "type": "0x2",
      "transactionHash": "0xd367c148800b2b88c7e22d4de8e8897fbbbd83d82fa36edafb064fbfb10c6856",
      "transactionIndex": "0x0",
      "blockHash": "0x9662a6c3c06ed3f1d316b1e6d8f4a9a8b572f9db1f49c35211635bcf3370b9cb",
      "blockNumber": "0x43890b7",
      "gasUsed": "0x69ac",
      "effectiveGasPrice": "0x64",
      "from": "0x484826732d75d6a8018bfad3468bd84f64614268",
      "to": "0x9bda12d3f4afff285eed11b19e84e7a2cdfb4561",
      "contractAddress": null
    },
    {
      "status": "0x1",
      "cumulativeGasUsed": "0x17353",
      "logs": [
        {
          "address": "0xa3d83ca946697fb88db35dd5dac6e6ace4746951",
          "topics": [
            "0x8c5be1e5ebec7d5bd14f71427d1e84f3dd0314c0f7b2291e5b200ac8c7c3b925",
            "0x000000000000000000000000484826732d75d6a8018bfad3468bd84f64614268",
            "0x000000000000000000000000eaf202621b9ef670c862d1625374e698bcfe833c"
          ],
          "data": "0x00000000000000000000000000000000000000000000152d02c7e14af6800000",
          "blockHash": "0x9662a6c3c06ed3f1d316b1e6d8f4a9a8b572f9db1f49c35211635bcf3370b9cb",
          "blockNumber": "0x43890b7",
          "transactionHash": "0x984ab48b9e1720349a4d5ac669dd5a3fe1042c5334b09512e6299524c73f0545",
          "transactionIndex": "0x2",
          "logIndex": "0x1",
          "removed": false
        }
      ],
      "logsBloom": "0x00000000000000000000000000000000000000000000000000000000000000000020000000000000000000000000000000000000000000001000000000200000000000000000000000000000000000000000000000000000000000000004000000000000000000000000000000000000000000000000000000000000000000000000000000000000000040000080000000000000000000000000000000000000020000000000000000000000400000000000000000000000000000000000000000000040000000000000000000040000000000000000000000000000040000000010000000000000000000000000000000000000000000000000000000000000",
      "type": "0x2",
      "transactionHash": "0x984ab48b9e1720349a4d5ac669dd5a3fe1042c5334b09512e6299524c73f0545",
      "transactionIndex": "0x2",
      "blockHash": "0x9662a6c3c06ed3f1d316b1e6d8f4a9a8b572f9db1f49c35211635bcf3370b9cb",
      "blockNumber": "0x43890b7",
      "gasUsed": "0xb768",
      "effectiveGasPrice": "0x64",
      "from": "0x484826732d75d6a8018bfad3468bd84f64614268",
      "to": "0xa3d83ca946697fb88db35dd5dac6e6ace4746951",
      "contractAddress": null
    },
    {
      "status": "0x1",
      "cumulativeGasUsed": "0x2e334",
      "logs": [
        {
          "address": "0x9bda12d3f4afff285eed11b19e84e7a2cdfb4561",
          "topics": [
            "0xddf252ad1be2c89b69c2b068fc378daa952ba7f163c4a11628f55a4df523b3ef",
            "0x000000000000000000000000484826732d75d6a8018bfad3468bd84f64614268",
            "0x000000000000000000000000eaf202621b9ef670c862d1625374e698bcfe833c"
          ],
          "data": "0x00000000000000000000000000000000000000000000152d02c7e14af6800000",
          "blockHash": "0x9662a6c3c06ed3f1d316b1e6d8f4a9a8b572f9db1f49c35211635bcf3370b9cb",
          "blockNumber": "0x43890b7",
          "transactionHash": "0x7abcd81ccc42a947bf7c7bf6d96ac3414c77e3b1c1be5babf574791dc4fbf1fb",
          "transactionIndex": "0x4",
          "logIndex": "0x2",
          "removed": false
        },
        {
          "address": "0xa3d83ca946697fb88db35dd5dac6e6ace4746951",
          "topics": [
            "0xddf252ad1be2c89b69c2b068fc378daa952ba7f163c4a11628f55a4df523b3ef",
            "0x000000000000000000000000484826732d75d6a8018bfad3468bd84f64614268",
            "0x000000000000000000000000eaf202621b9ef670c862d1625374e698bcfe833c"
          ],
          "data": "0x00000000000000000000000000000000000000000000152d02c7e14af6800000",
          "blockHash": "0x9662a6c3c06ed3f1d316b1e6d8f4a9a8b572f9db1f49c35211635bcf3370b9cb",
          "blockNumber": "0x43890b7",
          "transactionHash": "0x7abcd81ccc42a947bf7c7bf6d96ac3414c77e3b1c1be5babf574791dc4fbf1fb",
          "transactionIndex": "0x4",
          "logIndex": "0x3",
          "removed": false
        },
        {
          "address": "0xeaf202621b9ef670c862d1625374e698bcfe833c",
          "topics": [
            "0xddf252ad1be2c89b69c2b068fc378daa952ba7f163c4a11628f55a4df523b3ef",
            "0x0000000000000000000000000000000000000000000000000000000000000000",
            "0x000000000000000000000000484826732d75d6a8018bfad3468bd84f64614268"
          ],
          "data": "0x00000000000000000000000000000000000000000000152d02c7e14af6800000",
          "blockHash": "0x9662a6c3c06ed3f1d316b1e6d8f4a9a8b572f9db1f49c35211635bcf3370b9cb",
          "blockNumber": "0x43890b7",
          "transactionHash": "0x7abcd81ccc42a947bf7c7bf6d96ac3414c77e3b1c1be5babf574791dc4fbf1fb",
          "transactionIndex": "0x4",
          "logIndex": "0x4",
          "removed": false
        }
      ],
      "logsBloom": "0x00000000000000000000000000000000000000000000000000000004000000000020000000000000000000000000000000000000000000001000000000000000000000000000000000000008000000000000000000000000000000000004000000000000020000000000000000000800000000000000000000000010000800000000000800000004000040000080000000000000000000000000000000000000000000000000000000000000400000000000000000000000000000000000000002000042000000000000000000040000000000000000000000000000040020000000000000000000000000000000000000000000000010000000000000000000",
      "type": "0x2",
      "transactionHash": "0x7abcd81ccc42a947bf7c7bf6d96ac3414c77e3b1c1be5babf574791dc4fbf1fb",
      "transactionIndex": "0x4",
      "blockHash": "0x9662a6c3c06ed3f1d316b1e6d8f4a9a8b572f9db1f49c35211635bcf3370b9cb",
      "blockNumber": "0x43890b7",
      "gasUsed": "0x11da2",
      "effectiveGasPrice": "0x64",
      "from": "0x484826732d75d6a8018bfad3468bd84f64614268",
      "to": "0xeaf202621b9ef670c862d1625374e698bcfe833c",
      "contractAddress": null
    }
  ],
  "libraries": [],
  "pending": [],
  "returns": {},
  "timestamp": 1759020323917,
  "chain": 545,
  "commit": "c651757"
}