{
  "transactions": [
    {
      "hash": "0x37ce854d8d0215e72b805a1ee097d1f0bb0ba200172ec0c1d1c5b473757fdd9b",
      "transactionType": "CALL",
      "contractName": null,
      "contractAddress": "0xbfad3c0108f78c128a7ea46d5d1975f2b3f08c36",
      "function": "buyTokens(uint256)",
      "arguments": [
        "500000000000000000000000"
      ],
      "transaction": {
        "from": "0x484826732d75d6a8018bfad3468bd84f64614268",
        "to": "0xbfad3c0108f78c128a7ea46d5d1975f2b3f08c36",
        "gas": "0xc800",
        "value": "0xde0b6b3a7640000",
        "input": "0x3610724e0000000000000000000000000000000000000000000069e10de76676d0800000",
        "nonce": "0x45",
        "chainId": "0x221"
      },
      "additionalContracts": [],
      "isFixedGasLimit": false
    }
  ],
  "receipts": [
    {
      "status": "0x1",
      "cumulativeGasUsed": "0x88c1",
      "logs": [
        {
          "address": "0xbfad3c0108f78c128a7ea46d5d1975f2b3f08c36",
          "topics": [
            "0xddf252ad1be2c89b69c2b068fc378daa952ba7f163c4a11628f55a4df523b3ef",
            "0x000000000000000000000000bfad3c0108f78c128a7ea46d5d1975f2b3f08c36",
            "0x000000000000000000000000484826732d75d6a8018bfad3468bd84f64614268"
          ],
          "data": "0x0000000000000000000000000000000000000000000069e10de76676d0800000",
          "blockHash": "0x4663f269234b417de65c1e14ebab747ecb1de16b3ea5c6dee5341d6114294638",
          "blockNumber": "0x43878c3",
          "blockTimestamp": "0x68d87925",
          "transactionHash": "0x37ce854d8d0215e72b805a1ee097d1f0bb0ba200172ec0c1d1c5b473757fdd9b",
          "transactionIndex": "0x0",
          "logIndex": "0x0",
          "removed": false
        }
      ],
      "logsBloom": "0x01000000000000000000000000000000000000001000000000000000000000000000000000000000000000000000000000000000000000001000000000000000000000000000000000000008000000000000000000000000000000000004000000000000000000000000000000000000000000000004000000000010000000000000000000200000000000000000000000000000000000000000000000000000000000000000000000000000000000000000000000000008000000000000000000000042000000000000000000000000000000000000000000000000000000000000000000000000000000000000000001000000000000000000000000000000",
      "type": "0x2",
      "transactionHash": "0x37ce854d8d0215e72b805a1ee097d1f0bb0ba200172ec0c1d1c5b473757fdd9b",
      "transactionIndex": "0x0",
      "blockHash": "0x4663f269234b417de65c1e14ebab747ecb1de16b3ea5c6dee5341d6114294638",
      "blockNumber": "0x43878c3",
      "gasUsed": "0x88c1",
      "effectiveGasPrice": "0x64",
      "from": "0x484826732d75d6a8018bfad3468bd84f64614268",
      "to": "0xbfad3c0108f78c128a7ea46d5d1975f2b3f08c36",
      "contractAddress": null
    }
  ],
  "libraries": [],
  "pending": [],
  "returns": {},
  "timestamp": 1759017257674,
  "chain": 545,
  "commit": "c651757"
}