{
  "transactions": [
    {
      "hash": "0x95b282182f9332c4ff2c289bf7e39b149d926ea03620786394249401dba07550",
      "transactionType": "CALL",
      "contractName": null,
      "contractAddress": "0x9bda12d3f4afff285eed11b19e84e7a2cdfb4561",
      "function": "buyTokens(uint256)",
      "arguments": [
        "100000"
      ],
      "transaction": {
        "from": "0x484826732d75d6a8018bfad3468bd84f64614268",
        "to": "0x9bda12d3f4afff285eed11b19e84e7a2cdfb4561",
        "gas": "0xbb01",
        "value": "0xde0b6b3a7640000",
        "input": "0x3610724e00000000000000000000000000000000000000000000000000000000000186a0",
        "nonce": "0x8e",
        "chainId": "0x221"
      },
      "additionalContracts": [],
      "isFixedGasLimit": false
    }
  ],
  "receipts": [
    {
      "status": "0x1",
      "cumulativeGasUsed": "0x8764",
      "logs": [
        {
          "address": "0x9bda12d3f4afff285eed11b19e84e7a2cdfb4561",
          "topics": [
            "0xddf252ad1be2c89b69c2b068fc378daa952ba7f163c4a11628f55a4df523b3ef",
            "0x0000000000000000000000009bda12d3f4afff285eed11b19e84e7a2cdfb4561",
            "0x000000000000000000000000484826732d75d6a8018bfad3468bd84f64614268"
          ],
          "data": "0x00000000000000000000000000000000000000000000152d02c7e14af6800000",
          "blockHash": "0xa03463afe24f110e7bcedf4abe3bd5b2efd21eaff4199ad9cfb1d26199fb2e07",
          "blockNumber": "0x438b2f3",
          "blockTimestamp": "0x68d8963e",
          "transactionHash": "0x95b282182f9332c4ff2c289bf7e39b149d926ea03620786394249401dba07550",
          "transactionIndex": "0x0",
          "logIndex": "0x0",
          "removed": false
        }
      ],
      "logsBloom": "0x00000000000000000000000040000000000000000000000000000000000000000000000000000000000000000000000000000000000000001000000000000000000000000000000000000008000000000000000000000000000000000004000000000000000000000000000000000000000000000000000000000010000800000000000800000000000000000000000000400000000000000000000000000000000000000000000000000000000000000000000000000000000000000000000000000042000000000000000000000000000000000000000000000000000000000000000000000000000001000000000000000000000010000000000000000000",
      "type": "0x2",
      "transactionHash": "0x95b282182f9332c4ff2c289bf7e39b149d926ea03620786394249401dba07550",
      "transactionIndex": "0x0",
      "blockHash": "0xa03463afe24f110e7bcedf4abe3bd5b2efd21eaff4199ad9cfb1d26199fb2e07",
      "blockNumber": "0x438b2f3",
      "gasUsed": "0x8764",
      "effectiveGasPrice": "0x64",
      "from": "0x484826732d75d6a8018bfad3468bd84f64614268",
      "to": "0x9bda12d3f4afff285eed11b19e84e7a2cdfb4561",
      "contractAddress": null
    }
  ],
  "libraries": [],
  "pending": [],
  "returns": {},
  "timestamp": 1759024705900,
  "chain": 545,
  "commit": "c651757"
}