{
  "transactions": [
    {
      "hash": "0xebf5216e3cf1644110f3eb378abe5211c90034450d378097023a96e8e3c9d9eb",
      "transactionType": "CALL",
      "contractName": null,
      "contractAddress": "0x9bda12d3f4afff285eed11b19e84e7a2cdfb4561",
      "function": "approve(address,uint256)",
      "arguments": [
        "0xeAf202621b9EF670c862d1625374e698bCfe833C",
        "100000"
      ],
      "transaction": {
        "from": "0x484826732d75d6a8018bfad3468bd84f64614268",
        "to": "0x9bda12d3f4afff285eed11b19e84e7a2cdfb4561",
        "gas": "0x91a2",
        "value": "0x0",
        "input": "0x095ea7b3000000000000000000000000eaf202621b9ef670c862d1625374e698bcfe833c00000000000000000000000000000000000000000000000000000000000186a0",
        "nonce": "0x4b",
        "chainId": "0x221"
      },
      "additionalContracts": [],
      "isFixedGasLimit": false
    },
    {
      "hash": "0xeba1d6dcb0484375d56063beb1ff62bb2a8b0a39ebfd55daa20454cb16a32321",
      "transactionType": "CALL",
      "contractName": null,
      "contractAddress": "0xa3d83ca946697fb88db35dd5dac6e6ace4746951",
      "function": "approve(address,uint256)",
      "arguments": [
        "0xeAf202621b9EF670c862d1625374e698bCfe833C",
        "100000"
      ],
      "transaction": {
        "from": "0x484826732d75d6a8018bfad3468bd84f64614268",
        "to": "0xa3d83ca946697fb88db35dd5dac6e6ace4746951",
        "gas": "0x91a2",
        "value": "0x0",
        "input": "0x095ea7b3000000000000000000000000eaf202621b9ef670c862d1625374e698bcfe833c00000000000000000000000000000000000000000000000000000000000186a0",
        "nonce": "0x4c",
        "chainId": "0x221"
      },
      "additionalContracts": [],
      "isFixedGasLimit": false
    },
    {
      "hash": "0xa769043e1011fefd117eb436486f56f12b8c461eafd0263b42be5a2407e3b0a7",
      "transactionType": "CALL",
      "contractName": null,
      "contractAddress": "0xeaf202621b9ef670c862d1625374e698bcfe833c",
      "function": "addLiquidity(uint256,uint256)",
      "arguments": [
        "100000",
        "100000"
      ],
      "transaction": {
        "from": "0x484826732d75d6a8018bfad3468bd84f64614268",
        "to": "0xeaf202621b9ef670c862d1625374e698bcfe833c",
        "gas": "0x31ac9",
        "value": "0x0",
        "input": "0x9cd441da00000000000000000000000000000000000000000000000000000000000186a000000000000000000000000000000000000000000000000000000000000186a0",
        "nonce": "0x4d",
        "chainId": "0x221"
      },
      "additionalContracts": [],
      "isFixedGasLimit": false
    }
  ],
  "receipts": [
    {
      "status": "0x1",
      "cumulativeGasUsed": "0x6970",
      "logs": [
        {
          "address": "0x9bda12d3f4afff285eed11b19e84e7a2cdfb4561",
          "topics": [
            "0x8c5be1e5ebec7d5bd14f71427d1e84f3dd0314c0f7b2291e5b200ac8c7c3b925",
            "0x000000000000000000000000484826732d75d6a8018bfad3468bd84f64614268",
            "0x000000000000000000000000eaf202621b9ef670c862d1625374e698bcfe833c"
          ],
          "data": "0x00000000000000000000000000000000000000000000000000000000000186a0",
          "blockHash": "0x04a8b5384703d031309965f49b7a707881768df3707cbdd4357de35498f138ec",
          "blockNumber": "0x4387d99",
          "blockTimestamp": "0x68d87b91",
          "transactionHash": "0xebf5216e3cf1644110f3eb378abe5211c90034450d378097023a96e8e3c9d9eb",
          "transactionIndex": "0x0",
          "logIndex": "0x0",
          "removed": false
        }
      ],
      "logsBloom": "0x00000000000000000000000000000000000000000000000000000000000000000020000000000000000000000000000000000000000000001000000000200000000000000000000000000000000000000000000000000000000000000004000000000000000000000000000000000000000000000000000000000000000800000000000800000000000000000000000000000000000000000000000000000000020000000000000000000000000000000000000000000000000000000000000000000040000000000000000000040000000000000000000000000000040000000010000000000000000000000000000000000000000010000000000000000000",
      "type": "0x2",
      "transactionHash": "0xebf5216e3cf1644110f3eb378abe5211c90034450d378097023a96e8e3c9d9eb",
      "transactionIndex": "0x0",
      "blockHash": "0x04a8b5384703d031309965f49b7a707881768df3707cbdd4357de35498f138ec",
      "blockNumber": "0x4387d99",
      "gasUsed": "0x6970",
      "effectiveGasPrice": "0x64",
      "from": "0x484826732d75d6a8018bfad3468bd84f64614268",
      "to": "0x9bda12d3f4afff285eed11b19e84e7a2cdfb4561",
      "contractAddress": null
    },
    {
      "status": "0x1",
      "cumulativeGasUsed": "0x1251f",
      "logs": [
        {
          "address": "0xa3d83ca946697fb88db35dd5dac6e6ace4746951",
          "topics": [
            "0x8c5be1e5ebec7d5bd14f71427d1e84f3dd0314c0f7b2291e5b200ac8c7c3b925",
            "0x000000000000000000000000484826732d75d6a8018bfad3468bd84f64614268",
            "0x000000000000000000000000eaf202621b9ef670c862d1625374e698bcfe833c"
          ],
          "data": "0x00000000000000000000000000000000000000000000000000000000000186a0",
          "blockHash": "0x04a8b5384703d031309965f49b7a707881768df3707cbdd4357de35498f138ec",
          "blockNumber": "0x4387d99",
          "transactionHash": "0xeba1d6dcb0484375d56063beb1ff62bb2a8b0a39ebfd55daa20454cb16a32321",
          "transactionIndex": "0x2",
          "logIndex": "0x1",
          "removed": false
        }
      ],
      "logsBloom": "0x00000000000000000000000000000000000000000000000000000000000000000020000000000000000000000000000000000000000000001000000000200000000000000000000000000000000000000000000000000000000000000004000000000000000000000000000000000000000000000000000000000000000000000000000000000000000040000080000000000000000000000000000000000000020000000000000000000000400000000000000000000000000000000000000000000040000000000000000000040000000000000000000000000000040000000010000000000000000000000000000000000000000000000000000000000000",
      "type": "0x2",
      "transactionHash": "0xeba1d6dcb0484375d56063beb1ff62bb2a8b0a39ebfd55daa20454cb16a32321",
      "transactionIndex": "0x2",
      "blockHash": "0x04a8b5384703d031309965f49b7a707881768df3707cbdd4357de35498f138ec",
      "blockNumber": "0x4387d99",
      "gasUsed": "0x6970",
      "effectiveGasPrice": "0x64",
      "from": "0x484826732d75d6a8018bfad3468bd84f64614268",
      "to": "0xa3d83ca946697fb88db35dd5dac6e6ace4746951",
      "contractAddress": null
    },
    {
      "status": "0x1",
      "cumulativeGasUsed": "0x21f72",
      "logs": [
        {
          "address": "0x9bda12d3f4afff285eed11b19e84e7a2cdfb4561",
          "topics": [
            "0xddf252ad1be2c89b69c2b068fc378daa952ba7f163c4a11628f55a4df523b3ef",
            "0x000000000000000000000000484826732d75d6a8018bfad3468bd84f64614268",
            "0x000000000000000000000000eaf202621b9ef670c862d1625374e698bcfe833c"
          ],
          "data": "0x00000000000000000000000000000000000000000000000000000000000186a0",
          "blockHash": "0x2b663c9534886bff4566ba8dae0e02c040c74556da35a7272cb4960256a194a7",
          "blockNumber": "0x4387d9a",
          "blockTimestamp": "0x68d87b91",
          "transactionHash": "0xa769043e1011fefd117eb436486f56f12b8c461eafd0263b42be5a2407e3b0a7",
          "transactionIndex": "0x0",
          "logIndex": "0x0",
          "removed": false
        },
        {
          "address": "0xa3d83ca946697fb88db35dd5dac6e6ace4746951",
          "topics": [
            "0xddf252ad1be2c89b69c2b068fc378daa952ba7f163c4a11628f55a4df523b3ef",
            "0x000000000000000000000000484826732d75d6a8018bfad3468bd84f64614268",
            "0x000000000000000000000000eaf202621b9ef670c862d1625374e698bcfe833c"
          ],
          "data": "0x00000000000000000000000000000000000000000000000000000000000186a0",
          "blockHash": "0x2b663c9534886bff4566ba8dae0e02c040c74556da35a7272cb4960256a194a7",
          "blockNumber": "0x4387d9a",
          "blockTimestamp": "0x68d87b91",
          "transactionHash": "0xa769043e1011fefd117eb436486f56f12b8c461eafd0263b42be5a2407e3b0a7",
          "transactionIndex": "0x0",
          "logIndex": "0x1",
          "removed": false
        },
        {
          "address": "0xeaf202621b9ef670c862d1625374e698bcfe833c",
          "topics": [
            "0xddf252ad1be2c89b69c2b068fc378daa952ba7f163c4a11628f55a4df523b3ef",
            "0x0000000000000000000000000000000000000000000000000000000000000000",
            "0x000000000000000000000000484826732d75d6a8018bfad3468bd84f64614268"
          ],
          "data": "0x00000000000000000000000000000000000000000000000000000000000186a0",
          "blockHash": "0x2b663c9534886bff4566ba8dae0e02c040c74556da35a7272cb4960256a194a7",
          "blockNumber": "0x4387d9a",
          "blockTimestamp": "0x68d87b91",
          "transactionHash": "0xa769043e1011fefd117eb436486f56f12b8c461eafd0263b42be5a2407e3b0a7",
          "transactionIndex": "0x0",
          "logIndex": "0x2",
          "removed": false
        }
      ],
      "logsBloom": "0x00000000000000000000000000000000000000000000000000000004000000000020000000000000000000000000000000000000000000001000000000000000000000000000000000000008000000000000000000000000000000000004000000000000020000000000000000000800000000000000000000000010000800000000000800000004000040000080000000000000000000000000000000000000000000000000000000000000400000000000000000000000000000000000000002000042000000000000000000040000000000000000000000000000040020000000000000000000000000000000000000000000000010000000000000000000",
      "type": "0x2",
      "transactionHash": "0xa769043e1011fefd117eb436486f56f12b8c461eafd0263b42be5a2407e3b0a7",
      "transactionIndex": "0x0",
      "blockHash": "0x2b663c9534886bff4566ba8dae0e02c040c74556da35a7272cb4960256a194a7",
      "blockNumber": "0x4387d9a",
      "gasUsed": "0x21f72",
      "effectiveGasPrice": "0x64",
      "from": "0x484826732d75d6a8018bfad3468bd84f64614268",
      "to": "0xeaf202621b9ef670c862d1625374e698bcfe833c",
      "contractAddress": null
    }
  ],
  "libraries": [],
  "pending": [],
  "returns": {},
  "timestamp": 1759017877677,
  "chain": 545,
  "commit": "c651757"
}