{
  "transactions": [
    {
      "hash": "0x5b8c42a2e8eb81374662d8de780559e0f518430be78704421dc8a0982eb54581",
      "transactionType": "CALL",
      "contractName": null,
      "contractAddress": "0x024808dbbd74bce60e31a4e8a6e3f9c48df5d3cf",
      "function": "buyTokens(uint256)",
      "arguments": [
        "500000000000000000000000"
      ],
      "transaction": {
        "from": "0x484826732d75d6a8018bfad3468bd84f64614268",
        "to": "0x024808dbbd74bce60e31a4e8a6e3f9c48df5d3cf",
        "gas": "0xc800",
        "value": "0xde0b6b3a7640000",
        "input": "0x3610724e0000000000000000000000000000000000000000000069e10de76676d0800000",
        "nonce": "0x44",
        "chainId": "0x221"
      },
      "additionalContracts": [],
      "isFixedGasLimit": false
    }
  ],
  "receipts": [
    {
      "status": "0x1",
      "cumulativeGasUsed": "0x88c1",
      "logs": [
        {
          "address": "0x024808dbbd74bce60e31a4e8a6e3f9c48df5d3cf",
          "topics": [
            "0xddf252ad1be2c89b69c2b068fc378daa952ba7f163c4a11628f55a4df523b3ef",
            "0x000000000000000000000000024808dbbd74bce60e31a4e8a6e3f9c48df5d3cf",
            "0x000000000000000000000000484826732d75d6a8018bfad3468bd84f64614268"
          ],
          "data": "0x0000000000000000000000000000000000000000000069e10de76676d0800000",
          "blockHash": "0xf3165b7acd26ab973866890b1ec5afd63bbc3e2001f882192d597c32af7d1a71",
          "blockNumber": "0x438788e",
          "blockTimestamp": "0x68d8790b",
          "transactionHash": "0x5b8c42a2e8eb81374662d8de780559e0f518430be78704421dc8a0982eb54581",
          "transactionIndex": "0x0",
          "logIndex": "0x0",
          "removed": false
        }
      ],
      "logsBloom": "0x00000000000000000000000000000000000000000000000000000000000000000000000000000000000000000000000000000000000000001000000000000000000000000000000000000008000000000000000000000000000002000004000000000000000000000000000000000000000000000000000000000010400000000000000000000000000000000000000000000000000000000000000000000000000000000000000000000000000000000000000000000000000000000000000000000042000000000000020000000000000000000000000000000000000000000000000000800000000000000000000400080000000000000000000000000000",
      "type": "0x2",
      "transactionHash": "0x5b8c42a2e8eb81374662d8de780559e0f518430be78704421dc8a0982eb54581",
      "transactionIndex": "0x0",
      "blockHash": "0xf3165b7acd26ab973866890b1ec5afd63bbc3e2001f882192d597c32af7d1a71",
      "blockNumber": "0x438788e",
      "gasUsed": "0x88c1",
      "effectiveGasPrice": "0x64",
      "from": "0x484826732d75d6a8018bfad3468bd84f64614268",
      "to": "0x024808dbbd74bce60e31a4e8a6e3f9c48df5d3cf",
      "contractAddress": null
    }
  ],
  "libraries": [],
  "pending": [],
  "returns": {},
  "timestamp": 1759017231634,
  "chain": 545,
  "commit": "c651757"
}