{
  "transactions": [
    {
      "hash": "0x2295c9dba9c3d08d03eac4bc599252b4e2914b34250411007b1cf40ff1bc72e8",
      "transactionType": "CALL",
      "contractName": null,
      "contractAddress": "0x9bda12d3f4afff285eed11b19e84e7a2cdfb4561",
      "function": "approve(address,uint256)",
      "arguments": [
        "0x95fd95991Ec718e66E456c4A4bb50FeaD9d39Cf2",
        "100000"
      ],
      "transaction": {
        "from": "0x484826732d75d6a8018bfad3468bd84f64614268",
        "to": "0x9bda12d3f4afff285eed11b19e84e7a2cdfb4561",
        "gas": "0x91a2",
        "value": "0x0",
        "input": "0x095ea7b300000000000000000000000095fd95991ec718e66e456c4a4bb50fead9d39cf200000000000000000000000000000000000000000000000000000000000186a0",
        "nonce": "0x5c",
        "chainId": "0x221"
      },
      "additionalContracts": [],
      "isFixedGasLimit": false
    },
    {
      "hash": "0xfa314e6cb2720fcb708c4c38b5b0fb27751ecc65928376aa8beaa762be1d3fb3",
      "transactionType": "CALL",
      "contractName": null,
      "contractAddress": "0xac9d9565188ca22ffdf3c9aeee3cf70b333308c5",
      "function": "approve(address,uint256)",
      "arguments": [
        "0x95fd95991Ec718e66E456c4A4bb50FeaD9d39Cf2",
        "100000"
      ],
      "transaction": {
        "from": "0x484826732d75d6a8018bfad3468bd84f64614268",
        "to": "0xac9d9565188ca22ffdf3c9aeee3cf70b333308c5",
        "gas": "0xfd00",
        "value": "0x0",
        "input": "0x095ea7b300000000000000000000000095fd95991ec718e66e456c4a4bb50fead9d39cf200000000000000000000000000000000000000000000000000000000000186a0",
        "nonce": "0x5d",
        "chainId": "0x221"
      },
      "additionalContracts": [],
      "isFixedGasLimit": false
    },
    {
      "hash": "0x4fc8f47eb407d12e1ef82ebb538850fdeb9e7a22a6edae99793e482aaa372238",
      "transactionType": "CALL",
      "contractName": null,
      "contractAddress": "0x95fd95991ec718e66e456c4a4bb50fead9d39cf2",
      "function": "addLiquidity(uint256,uint256)",
      "arguments": [
        "100000",
        "100000"
      ],
      "transaction": {
        "from": "0x484826732d75d6a8018bfad3468bd84f64614268",
        "to": "0x95fd95991ec718e66e456c4a4bb50fead9d39cf2",
        "gas": "0x1a10d",
        "value": "0x0",
        "input": "0x9cd441da00000000000000000000000000000000000000000000000000000000000186a000000000000000000000000000000000000000000000000000000000000186a0",
        "nonce": "0x5e",
        "chainId": "0x221"
      },
      "additionalContracts": [],
      "isFixedGasLimit": false
    }
  ],
  "receipts": [
    {
      "status": "0x1",
      "cumulativeGasUsed": "0x6970",
      "logs": [
        {
          "address": "0x9bda12d3f4afff285eed11b19e84e7a2cdfb4561",
          "topics": [
            "0x8c5be1e5ebec7d5bd14f71427d1e84f3dd0314c0f7b2291e5b200ac8c7c3b925",
            "0x000000000000000000000000484826732d75d6a8018bfad3468bd84f64614268",
            "0x00000000000000000000000095fd95991ec718e66e456c4a4bb50fead9d39cf2"
          ],
          "data": "0x00000000000000000000000000000000000000000000000000000000000186a0",
          "blockHash": "0x9dd33e08ca1493cf5b8e0557214853c5f8424f322f435ffc7d8e88ecee3fd73a",
          "blockNumber": "0x4388040",
          "transactionHash": "0x2295c9dba9c3d08d03eac4bc599252b4e2914b34250411007b1cf40ff1bc72e8",
          "transactionIndex": "0x0",
          "logIndex": "0x0",
          "removed": false
        }
      ],
      "logsBloom": "0x00000000000000000000000000000000000000000000000000000000000000000000000000000000000000000000000000000000000000001000000000200000000000000000000000000000000000000000000000000000000000000004000000000000000000000000000000000400000000000000000000000001000800000000000800000000000000000000000000000000000000000000000000000000020000000000000000000000000000000000000000000000000000000000000000000040000000000000000000000000000000000000000000000000000000000018000000000000000000000000000000000000000010000000000000000000",
      "type": "0x2",
      "transactionHash": "0x2295c9dba9c3d08d03eac4bc599252b4e2914b34250411007b1cf40ff1bc72e8",
      "transactionIndex": "0x0",
      "blockHash": "0x9dd33e08ca1493cf5b8e0557214853c5f8424f322f435ffc7d8e88ecee3fd73a",
      "blockNumber": "0x4388040",
      "gasUsed": "0x6970",
      "effectiveGasPrice": "0x64",
      "from": "0x484826732d75d6a8018bfad3468bd84f64614268",
      "to": "0x9bda12d3f4afff285eed11b19e84e7a2cdfb4561",
      "contractAddress": null
    },
    {
      "status": "0x1",
      "cumulativeGasUsed": "0x172db",
      "logs": [
        {
          "address": "0xac9d9565188ca22ffdf3c9aeee3cf70b333308c5",
          "topics": [
            "0x8c5be1e5ebec7d5bd14f71427d1e84f3dd0314c0f7b2291e5b200ac8c7c3b925",
            "0x000000000000000000000000484826732d75d6a8018bfad3468bd84f64614268",
            "0x00000000000000000000000095fd95991ec718e66e456c4a4bb50fead9d39cf2"
          ],
          "data": "0x00000000000000000000000000000000000000000000000000000000000186a0",
          "blockHash": "0x9dd33e08ca1493cf5b8e0557214853c5f8424f322f435ffc7d8e88ecee3fd73a",
          "blockNumber": "0x4388040",
          "transactionHash": "0xfa314e6cb2720fcb708c4c38b5b0fb27751ecc65928376aa8beaa762be1d3fb3",
          "transactionIndex": "0x2",
          "logIndex": "0x1",
          "removed": false
        }
      ],
      "logsBloom": "0x00000000000000000000002000000000000000000000000000000000000000000000000000000000000000000000000000000000000000001000000000200000000000000000000000000000000000000000000000000000000000000004000000000000000000000000000000000400000000000000000008000001000000000000000000000000000000000000000000000000000000000000000000000000020000000000000000000000000000000000000000000000000000000000000000000040000000000000000000000000000000000000000000000000000010000018000000000000000000000000000000000000000000000000000000000000",
      "type": "0x2",
      "transactionHash": "0xfa314e6cb2720fcb708c4c38b5b0fb27751ecc65928376aa8beaa762be1d3fb3",
      "transactionIndex": "0x2",
      "blockHash": "0x9dd33e08ca1493cf5b8e0557214853c5f8424f322f435ffc7d8e88ecee3fd73a",
      "blockNumber": "0x4388040",
      "gasUsed": "0xb72c",
      "effectiveGasPrice": "0x64",
      "from": "0x484826732d75d6a8018bfad3468bd84f64614268",
      "to": "0xac9d9565188ca22ffdf3c9aeee3cf70b333308c5",
      "contractAddress": null
    },
    {
      "status": "0x1",
      "cumulativeGasUsed": "0x11d2a",
      "logs": [
        {
          "address": "0x9bda12d3f4afff285eed11b19e84e7a2cdfb4561",
          "topics": [
            "0xddf252ad1be2c89b69c2b068fc378daa952ba7f163c4a11628f55a4df523b3ef",
            "0x000000000000000000000000484826732d75d6a8018bfad3468bd84f64614268",
            "0x00000000000000000000000095fd95991ec718e66e456c4a4bb50fead9d39cf2"
          ],
          "data": "0x00000000000000000000000000000000000000000000000000000000000186a0",
          "blockHash": "0x8bbba111ebdb3fe4c1f782da7f8ada66821b144f551fc03f8149ed87df10521f",
          "blockNumber": "0x4388041",
          "transactionHash": "0x4fc8f47eb407d12e1ef82ebb538850fdeb9e7a22a6edae99793e482aaa372238",
          "transactionIndex": "0x0",
          "logIndex": "0x0",
          "removed": false
        },
        {
          "address": "0xac9d9565188ca22ffdf3c9aeee3cf70b333308c5",
          "topics": [
            "0xddf252ad1be2c89b69c2b068fc378daa952ba7f163c4a11628f55a4df523b3ef",
            "0x000000000000000000000000484826732d75d6a8018bfad3468bd84f64614268",
            "0x00000000000000000000000095fd95991ec718e66e456c4a4bb50fead9d39cf2"
          ],
          "data": "0x00000000000000000000000000000000000000000000000000000000000186a0",
          "blockHash": "0x8bbba111ebdb3fe4c1f782da7f8ada66821b144f551fc03f8149ed87df10521f",
          "blockNumber": "0x4388041",
          "transactionHash": "0x4fc8f47eb407d12e1ef82ebb538850fdeb9e7a22a6edae99793e482aaa372238",
          "transactionIndex": "0x0",
          "logIndex": "0x1",
          "removed": false
        },
        {
          "address": "0x95fd95991ec718e66e456c4a4bb50fead9d39cf2",
          "topics": [
            "0xddf252ad1be2c89b69c2b068fc378daa952ba7f163c4a11628f55a4df523b3ef",
            "0x0000000000000000000000000000000000000000000000000000000000000000",
            "0x000000000000000000000000484826732d75d6a8018bfad3468bd84f64614268"
          ],
          "data": "0x00000000000000000000000000000000000000000000000000000000000186a0",
          "blockHash": "0x8bbba111ebdb3fe4c1f782da7f8ada66821b144f551fc03f8149ed87df10521f",
          "blockNumber": "0x4388041",
          "transactionHash": "0x4fc8f47eb407d12e1ef82ebb538850fdeb9e7a22a6edae99793e482aaa372238",
          "transactionIndex": "0x0",
          "logIndex": "0x2",
          "removed": false
        }
      ],
      "logsBloom": "0x00000800000000000000002000000008000000000000000000000000000000000000000000000000000000000000000000000000000000001000000000000000000000000000000000000008000000000000000000000000000000000004000000000000020000000000000000000c00000000000000000008000011000800008000000800000000000000000000000000000000000000000000000000000000000000000000000000000000000000000000000000000000000000000000000000000042000000000000000000000000000000000000000000000000000030000008000000000000000000000000000000000000000010000000000000000000",
      "type": "0x2",
      "transactionHash": "0x4fc8f47eb407d12e1ef82ebb538850fdeb9e7a22a6edae99793e482aaa372238",
      "transactionIndex": "0x0",
      "blockHash": "0x8bbba111ebdb3fe4c1f782da7f8ada66821b144f551fc03f8149ed87df10521f",
      "blockNumber": "0x4388041",
      "gasUsed": "0x11d2a",
      "effectiveGasPrice": "0x64",
      "from": "0x484826732d75d6a8018bfad3468bd84f64614268",
      "to": "0x95fd95991ec718e66e456c4a4bb50fead9d39cf2",
      "contractAddress": null
    }
  ],
  "libraries": [],
  "pending": [],
  "returns": {},
  "timestamp": 1759018216941,
  "chain": 545,
  "commit": "c651757"
}