{
  "transactions": [
    {
      "hash": "0xcc8c88f11128f204a1ab5c2e1b0752aaa417c5d0a8cfd45616a3bfea1dd5b7df",
      "transactionType": "CALL",
      "contractName": null,
      "contractAddress": "0x9bda12d3f4afff285eed11b19e84e7a2cdfb4561",
      "function": "approve(address,uint256)",
      "arguments": [
        "0xaF3F28f2b30417a33fBeE349a3e19eAf19Ad4586",
        "99000000000000000000000"
      ],
      "transaction": {
        "from": "0x484826732d75d6a8018bfad3468bd84f64614268",
        "to": "0x9bda12d3f4afff285eed11b19e84e7a2cdfb4561",
        "gas": "0x91f4",
        "value": "0x0",
        "input": "0x095ea7b3000000000000000000000000af3f28f2b30417a33fbee349a3e19eaf19ad45860000000000000000000000000000000000000000000014f6ccfe338517e00000",
        "nonce": "0x89",
        "chainId": "0x221"
      },
      "additionalContracts": [],
      "isFixedGasLimit": false
    },
    {
      "hash": "0xe1eb13090fdf1ef2c78c654cbf688dea3c30b633be40b53d5145ccf6dffc6c59",
      "transactionType": "CALL",
      "contractName": null,
      "contractAddress": "0x02846c95ff01ffadcdfbcd9fe104959f51602600",
      "function": "approve(address,uint256)",
      "arguments": [
        "0xaF3F28f2b30417a33fBeE349a3e19eAf19Ad4586",
        "99000000000000000000000"
      ],
      "transaction": {
        "from": "0x484826732d75d6a8018bfad3468bd84f64614268",
        "to": "0x02846c95ff01ffadcdfbcd9fe104959f51602600",
        "gas": "0x91f4",
        "value": "0x0",
        "input": "0x095ea7b3000000000000000000000000af3f28f2b30417a33fbee349a3e19eaf19ad45860000000000000000000000000000000000000000000014f6ccfe338517e00000",
        "nonce": "0x8a",
        "chainId": "0x221"
      },
      "additionalContracts": [],
      "isFixedGasLimit": false
    },
    {
      "hash": "0x5d0d906d98817a5edcd5ef180b76f81f9cf17e0cd22e81254ee4aa63de5eefeb",
      "transactionType": "CALL",
      "contractName": null,
      "contractAddress": "0xaf3f28f2b30417a33fbee349a3e19eaf19ad4586",
      "function": "addLiquidity(uint256,uint256)",
      "arguments": [
        "99000000000000000000000",
        "99000000000000000000000"
      ],
      "transaction": {
        "from": "0x484826732d75d6a8018bfad3468bd84f64614268",
        "to": "0xaf3f28f2b30417a33fbee349a3e19eaf19ad4586",
        "gas": "0x1a1bc",
        "value": "0x0",
        "input": "0x9cd441da0000000000000000000000000000000000000000000014f6ccfe338517e000000000000000000000000000000000000000000000000014f6ccfe338517e00000",
        "nonce": "0x8b",
        "chainId": "0x221"
      },
      "additionalContracts": [],
      "isFixedGasLimit": false
    }
  ],
  "receipts": [
    {
      "status": "0x1",
      "cumulativeGasUsed": "0x69ac",
      "logs": [
        {
          "address": "0x9bda12d3f4afff285eed11b19e84e7a2cdfb4561",
          "topics": [
            "0x8c5be1e5ebec7d5bd14f71427d1e84f3dd0314c0f7b2291e5b200ac8c7c3b925",
            "0x000000000000000000000000484826732d75d6a8018bfad3468bd84f64614268",
            "0x000000000000000000000000af3f28f2b30417a33fbee349a3e19eaf19ad4586"
          ],
          "data": "0x0000000000000000000000000000000000000000000014f6ccfe338517e00000",
          "blockHash": "0xb8743fd5a2c61ac448a9a49f66b3be25b15fb09f70c0134844e2b74c1c51f02f",
          "blockNumber": "0x43896a8",
          "transactionHash": "0xcc8c88f11128f204a1ab5c2e1b0752aaa417c5d0a8cfd45616a3bfea1dd5b7df",
          "transactionIndex": "0x0",
          "logIndex": "0x0",
          "removed": false
        }
      ],
      "logsBloom": "0x00000000000000000000000000000000000000000000000000000000000000100000000000000000000000000000000000000000000010001000000000200000000000000000000000000000000000000000000000000000000000000004000000000000000000000000000000000000000000000000000000000000000800000000000800000000000000000000000000000000000000000000000000000000020000000000000000000000000000000000000000000000000000000000000000000040000000000000000000000000000000000080000000000000000000000010000000000000000000000000000000000000000010000000000000000000",
      "type": "0x2",
      "transactionHash": "0xcc8c88f11128f204a1ab5c2e1b0752aaa417c5d0a8cfd45616a3bfea1dd5b7df",
      "transactionIndex": "0x0",
      "blockHash": "0xb8743fd5a2c61ac448a9a49f66b3be25b15fb09f70c0134844e2b74c1c51f02f",
      "blockNumber": "0x43896a8",
      "gasUsed": "0x69ac",
      "effectiveGasPrice": "0x64",
      "from": "0x484826732d75d6a8018bfad3468bd84f64614268",
      "to": "0x9bda12d3f4afff285eed11b19e84e7a2cdfb4561",
      "contractAddress": null
    },
    {
      "status": "0x1",
      "cumulativeGasUsed": "0x12597",
      "logs": [
        {
          "address": "0x02846c95ff01ffadcdfbcd9fe104959f51602600",
          "topics": [
            "0x8c5be1e5ebec7d5bd14f71427d1e84f3dd0314c0f7b2291e5b200ac8c7c3b925",
            "0x000000000000000000000000484826732d75d6a8018bfad3468bd84f64614268",
            "0x000000000000000000000000af3f28f2b30417a33fbee349a3e19eaf19ad4586"
          ],
          "data": "0x0000000000000000000000000000000000000000000014f6ccfe338517e00000",
          "blockHash": "0xb8743fd5a2c61ac448a9a49f66b3be25b15fb09f70c0134844e2b74c1c51f02f",
          "blockNumber": "0x43896a8",
          "blockTimestamp": "0x68d88818",
          "transactionHash": "0xe1eb13090fdf1ef2c78c654cbf688dea3c30b633be40b53d5145ccf6dffc6c59",
          "transactionIndex": "0x2",
          "logIndex": "0x1",
          "removed": false
        }
      ],
      "logsBloom": "0x00000000000000000000000000000000000000000000000000000000000000100000000000000000000000000000000000000000000010001000000000200000000000000000000000000000000000000000000000000000000000000004000000000000000000000000000000000000000000000000000000100000000000000000000000000000000000800000000000000000000000000000000000000000020000000000000000000000000000000000000000000000000000000000000000000040000000000000400000000000000000000080000000000000000000000010000000000000000000000000000000000000000000000000000000000000",
      "type": "0x2",
      "transactionHash": "0xe1eb13090fdf1ef2c78c654cbf688dea3c30b633be40b53d5145ccf6dffc6c59",
      "transactionIndex": "0x2",
      "blockHash": "0xb8743fd5a2c61ac448a9a49f66b3be25b15fb09f70c0134844e2b74c1c51f02f",
      "blockNumber": "0x43896a8",
      "gasUsed": "0x69ac",
      "effectiveGasPrice": "0x64",
      "from": "0x484826732d75d6a8018bfad3468bd84f64614268",
      "to": "0x02846c95ff01ffadcdfbcd9fe104959f51602600",
      "contractAddress": null
    },
    {
      "status": "0x1",
      "cumulativeGasUsed": "0x29578",
      "logs": [
        {
          "address": "0x9bda12d3f4afff285eed11b19e84e7a2cdfb4561",
          "topics": [
            "0xddf252ad1be2c89b69c2b068fc378daa952ba7f163c4a11628f55a4df523b3ef",
            "0x000000000000000000000000484826732d75d6a8018bfad3468bd84f64614268",
            "0x000000000000000000000000af3f28f2b30417a33fbee349a3e19eaf19ad4586"
          ],
          "data": "0x0000000000000000000000000000000000000000000014f6ccfe338517e00000",
          "blockHash": "0xb8743fd5a2c61ac448a9a49f66b3be25b15fb09f70c0134844e2b74c1c51f02f",
          "blockNumber": "0x43896a8",
          "transactionHash": "0x5d0d906d98817a5edcd5ef180b76f81f9cf17e0cd22e81254ee4aa63de5eefeb",
          "transactionIndex": "0x4",
          "logIndex": "0x2",
          "removed": false
        },
        {
          "address": "0x02846c95ff01ffadcdfbcd9fe104959f51602600",
          "topics": [
            "0xddf252ad1be2c89b69c2b068fc378daa952ba7f163c4a11628f55a4df523b3ef",
            "0x000000000000000000000000484826732d75d6a8018bfad3468bd84f64614268",
            "0x000000000000000000000000af3f28f2b30417a33fbee349a3e19eaf19ad4586"
          ],
          "data": "0x0000000000000000000000000000000000000000000014f6ccfe338517e00000",
          "blockHash": "0xb8743fd5a2c61ac448a9a49f66b3be25b15fb09f70c0134844e2b74c1c51f02f",
          "blockNumber": "0x43896a8",
          "transactionHash": "0x5d0d906d98817a5edcd5ef180b76f81f9cf17e0cd22e81254ee4aa63de5eefeb",
          "transactionIndex": "0x4",
          "logIndex": "0x3",
          "removed": false
        },
        {
          "address": "0xaf3f28f2b30417a33fbee349a3e19eaf19ad4586",
          "topics": [
            "0xddf252ad1be2c89b69c2b068fc378daa952ba7f163c4a11628f55a4df523b3ef",
            "0x0000000000000000000000000000000000000000000000000000000000000000",
            "0x000000000000000000000000484826732d75d6a8018bfad3468bd84f64614268"
          ],
          "data": "0x0000000000000000000000000000000000000000000014f6ccfe338517e00000",
          "blockHash": "0xb8743fd5a2c61ac448a9a49f66b3be25b15fb09f70c0134844e2b74c1c51f02f",
          "blockNumber": "0x43896a8",
          "transactionHash": "0x5d0d906d98817a5edcd5ef180b76f81f9cf17e0cd22e81254ee4aa63de5eefeb",
          "transactionIndex": "0x4",
          "logIndex": "0x4",
          "removed": false
        }
      ],
      "logsBloom": "0x80000000000000000000000000000000000000000000000000000000000000100000000000000000000000000000000000000000000010001000000000000000000000000000000000000008000000000000000000000000008000000004000000000000020000000000000000000800000000000000000000100010000800000000800800000000000000800000000000000000000000000000000000000000000000000000000000000000000000000000000000000000000000000000000000000042000000000000400000000000000000000080000000000000000020000000000000000000000000000000000000000000000010000000000000000000",
      "type": "0x2",
      "transactionHash": "0x5d0d906d98817a5edcd5ef180b76f81f9cf17e0cd22e81254ee4aa63de5eefeb",
      "transactionIndex": "0x4",
      "blockHash": "0xb8743fd5a2c61ac448a9a49f66b3be25b15fb09f70c0134844e2b74c1c51f02f",
      "blockNumber": "0x43896a8",
      "gasUsed": "0x11da2",
      "effectiveGasPrice": "0x64",
      "from": "0x484826732d75d6a8018bfad3468bd84f64614268",
      "to": "0xaf3f28f2b30417a33fbee349a3e19eaf19ad4586",
      "contractAddress": null
    }
  ],
  "libraries": [],
  "pending": [],
  "returns": {},
  "timestamp": 1759021084377,
  "chain": 545,
  "commit": "c651757"
}