{
  "transactions": [
    {
      "hash": "0x5d767a5191bdd16a5f55a0d7463b1645f2e7e27968fa623204feda44fc2533a3",
      "transactionType": "CALL",
      "contractName": null,
      "contractAddress": "0xa3d83ca946697fb88db35dd5dac6e6ace4746951",
      "function": "buyTokens(uint256)",
      "arguments": [
        "500000000000000000000000"
      ],
      "transaction": {
        "from": "0x484826732d75d6a8018bfad3468bd84f64614268",
        "to": "0xa3d83ca946697fb88db35dd5dac6e6ace4746951",
        "gas": "0xc800",
        "value": "0xde0b6b3a7640000",
        "input": "0x3610724e0000000000000000000000000000000000000000000069e10de76676d0800000",
        "nonce": "0x43",
        "chainId": "0x221"
      },
      "additionalContracts": [],
      "isFixedGasLimit": false
    }
  ],
  "receipts": [
    {
      "status": "0x1",
      "cumulativeGasUsed": "0x88c1",
      "logs": [
        {
          "address": "0xa3d83ca946697fb88db35dd5dac6e6ace4746951",
          "topics": [
            "0xddf252ad1be2c89b69c2b068fc378daa952ba7f163c4a11628f55a4df523b3ef",
            "0x000000000000000000000000a3d83ca946697fb88db35dd5dac6e6ace4746951",
            "0x000000000000000000000000484826732d75d6a8018bfad3468bd84f64614268"
          ],
          "data": "0x0000000000000000000000000000000000000000000069e10de76676d0800000",
          "blockHash": "0x74a74bec1abfce48cd593cdac5ad2999f7b2dda80db5aa36375b1d8ff887d475",
          "blockNumber": "0x438783d",
          "transactionHash": "0x5d767a5191bdd16a5f55a0d7463b1645f2e7e27968fa623204feda44fc2533a3",
          "transactionIndex": "0x0",
          "logIndex": "0x0",
          "removed": false
        }
      ],
      "logsBloom": "0x00000000000000000000000000000000000000000000000000000000000000000000000000000000000000800000000000000000000000001000000000000000000000000000000000000008000000000000000000000000000000000004000000000000000000000000000000000000000000000000000000000010000000000000200000000000000040000080000000000000000000000000001000000000000000000000000000000000400000000000000000000000000000000000000000000042000000000000000000000000000000000000000000000000000000000000000000000000000000000000000000000000000000000000000000000000",
      "type": "0x2",
      "transactionHash": "0x5d767a5191bdd16a5f55a0d7463b1645f2e7e27968fa623204feda44fc2533a3",
      "transactionIndex": "0x0",
      "blockHash": "0x74a74bec1abfce48cd593cdac5ad2999f7b2dda80db5aa36375b1d8ff887d475",
      "blockNumber": "0x438783d",
      "gasUsed": "0x88c1",
      "effectiveGasPrice": "0x64",
      "from": "0x484826732d75d6a8018bfad3468bd84f64614268",
      "to": "0xa3d83ca946697fb88db35dd5dac6e6ace4746951",
      "contractAddress": null
    }
  ],
  "libraries": [],
  "pending": [],
  "returns": {},
  "timestamp": 1759017190673,
  "chain": 545,
  "commit": "c651757"
}