{
  "transactions": [
    {
      "hash": "0x5e712b12183f7af672ab322d3ab3733b74a862c0711d4968d5ca3b091fdaabbf",
      "transactionType": "CALL",
      "contractName": null,
      "contractAddress": "0x9bda12d3f4afff285eed11b19e84e7a2cdfb4561",
      "function": "approve(address,uint256)",
      "arguments": [
        "0x5da34a7DB215111aA19AD75e162Be02457f15e0d",
        "100000"
      ],
      "transaction": {
        "from": "0x484826732d75d6a8018bfad3468bd84f64614268",
        "to": "0x9bda12d3f4afff285eed11b19e84e7a2cdfb4561",
        "gas": "0xfd00",
        "value": "0x0",
        "input": "0x095ea7b30000000000000000000000005da34a7db215111aa19ad75e162be02457f15e0d00000000000000000000000000000000000000000000000000000000000186a0",
        "nonce": "0x54",
        "chainId": "0x221"
      },
      "additionalContracts": [],
      "isFixedGasLimit": false
    },
    {
      "hash": "0x18385d5d888684aae88f8c61738bc4e92430d4c19e7ce7cf1ed2920caa8c39bf",
      "transactionType": "CALL",
      "contractName": null,
      "contractAddress": "0xbfad3c0108f78c128a7ea46d5d1975f2b3f08c36",
      "function": "approve(address,uint256)",
      "arguments": [
        "0x5da34a7DB215111aA19AD75e162Be02457f15e0d",
        "100000"
      ],
      "transaction": {
        "from": "0x484826732d75d6a8018bfad3468bd84f64614268",
        "to": "0xbfad3c0108f78c128a7ea46d5d1975f2b3f08c36",
        "gas": "0xfd00",
        "value": "0x0",
        "input": "0x095ea7b30000000000000000000000005da34a7db215111aa19ad75e162be02457f15e0d00000000000000000000000000000000000000000000000000000000000186a0",
        "nonce": "0x55",
        "chainId": "0x221"
      },
      "additionalContracts": [],
      "isFixedGasLimit": false
    },
    {
      "hash": "0x82d03562a1800bc7c9569a072692d067260521cb30a4eced8f968b6084bbcd05",
      "transactionType": "CALL",
      "contractName": null,
      "contractAddress": "0x5da34a7db215111aa19ad75e162be02457f15e0d",
      "function": "addLiquidity(uint256,uint256)",
      "arguments": [
        "100000",
        "100000"
      ],
      "transaction": {
        "from": "0x484826732d75d6a8018bfad3468bd84f64614268",
        "to": "0x5da34a7db215111aa19ad75e162be02457f15e0d",
        "gas": "0x31ac9",
        "value": "0x0",
        "input": "0x9cd441da00000000000000000000000000000000000000000000000000000000000186a000000000000000000000000000000000000000000000000000000000000186a0",
        "nonce": "0x56",
        "chainId": "0x221"
      },
      "additionalContracts": [],
      "isFixedGasLimit": false
    }
  ],
  "receipts": [
    {
      "status": "0x1",
      "cumulativeGasUsed": "0xb72c",
      "logs": [
        {
          "address": "0x9bda12d3f4afff285eed11b19e84e7a2cdfb4561",
          "topics": [
            "0x8c5be1e5ebec7d5bd14f71427d1e84f3dd0314c0f7b2291e5b200ac8c7c3b925",
            "0x000000000000000000000000484826732d75d6a8018bfad3468bd84f64614268",
            "0x0000000000000000000000005da34a7db215111aa19ad75e162be02457f15e0d"
          ],
          "data": "0x00000000000000000000000000000000000000000000000000000000000186a0",
          "blockHash": "0xb36715dc7c15cab135bd075d644b5941b03080e8c1bb8e254a531507f970cfa5",
          "blockNumber": "0x4387f3c",
          "blockTimestamp": "0x68d87c62",
          "transactionHash": "0x5e712b12183f7af672ab322d3ab3733b74a862c0711d4968d5ca3b091fdaabbf",
          "transactionIndex": "0x0",
          "logIndex": "0x0",
          "removed": false
        }
      ],
      "logsBloom": "0x00000000000000000000000000000000000000000000000000000000000000000000000000000000000000000400000000000000000000001000000000200000000000000000000000000000000000000000000000000000000000000004000000000000000000000000000000000000000000000000000000000000000800000000000800000000000000000000000000000000000000800000000000001000020000000000000000000000000000000000000000000000000000000000000000000040000000000000000000000000000000000000000000000000000000000010000000000000000000000000000000000000000010000000000000000000",
      "type": "0x2",
      "transactionHash": "0x5e712b12183f7af672ab322d3ab3733b74a862c0711d4968d5ca3b091fdaabbf",
      "transactionIndex": "0x0",
      "blockHash": "0xb36715dc7c15cab135bd075d644b5941b03080e8c1bb8e254a531507f970cfa5",
      "blockNumber": "0x4387f3c",
      "gasUsed": "0xb72c",
      "effectiveGasPrice": "0x64",
      "from": "0x484826732d75d6a8018bfad3468bd84f64614268",
      "to": "0x9bda12d3f4afff285eed11b19e84e7a2cdfb4561",
      "contractAddress": null
    },
    {
      "status": "0x1",
      "cumulativeGasUsed": "0xb72c",
      "logs": [
        {
          "address": "0xbfad3c0108f78c128a7ea46d5d1975f2b3f08c36",
          "topics": [
            "0x8c5be1e5ebec7d5bd14f71427d1e84f3dd0314c0f7b2291e5b200ac8c7c3b925",
            "0x000000000000000000000000484826732d75d6a8018bfad3468bd84f64614268",
            "0x0000000000000000000000005da34a7db215111aa19ad75e162be02457f15e0d"
          ],
          "data": "0x00000000000000000000000000000000000000000000000000000000000186a0",
          "blockHash": "0x71c23bb69b3c3d82195227ad75beb5008c746e105ac9bc3768ebec83e538be15",
          "blockNumber": "0x4387f3d",
          "transactionHash": "0x18385d5d888684aae88f8c61738bc4e92430d4c19e7ce7cf1ed2920caa8c39bf",
          "transactionIndex": "0x0",
          "logIndex": "0x0",
          "removed": false
        }
      ],
      "logsBloom": "0x00000000000000000000000000000000000000001000000000000000000000000000000000000000000000000400000000000000000000001000000000200000000000000000000000000000000000000000000000000000000000000004000000000000000000000000000000000000000000000000000000000000000000000000000000200000000000000000000000000000000000800000000000001000020000000000000000000000000000000000000000000008000000000000000000000040000000000000000000000000000000000000000000000000000000000010000000000000000000000000000000000000000000000000000000000000",
      "type": "0x2",
      "transactionHash": "0x18385d5d888684aae88f8c61738bc4e92430d4c19e7ce7cf1ed2920caa8c39bf",
      "transactionIndex": "0x0",
      "blockHash": "0x71c23bb69b3c3d82195227ad75beb5008c746e105ac9bc3768ebec83e538be15",
      "blockNumber": "0x4387f3d",
      "gasUsed": "0xb72c",
      "effectiveGasPrice": "0x64",
      "from": "0x484826732d75d6a8018bfad3468bd84f64614268",
      "to": "0xbfad3c0108f78c128a7ea46d5d1975f2b3f08c36",
      "contractAddress": null
    },
    {
      "status": "0x1",
      "cumulativeGasUsed": "0x328dd",
      "logs": [
        {
          "address": "0x9bda12d3f4afff285eed11b19e84e7a2cdfb4561",
          "topics": [
            "0xddf252ad1be2c89b69c2b068fc378daa952ba7f163c4a11628f55a4df523b3ef",
            "0x000000000000000000000000484826732d75d6a8018bfad3468bd84f64614268",
            "0x0000000000000000000000005da34a7db215111aa19ad75e162be02457f15e0d"
          ],
          "data": "0x00000000000000000000000000000000000000000000000000000000000186a0",
          "blockHash": "0x71c23bb69b3c3d82195227ad75beb5008c746e105ac9bc3768ebec83e538be15",
          "blockNumber": "0x4387f3d",
          "transactionHash": "0x82d03562a1800bc7c9569a072692d067260521cb30a4eced8f968b6084bbcd05",
          "transactionIndex": "0x2",
          "logIndex": "0x1",
          "removed": false
        },
        {
          "address": "0xbfad3c0108f78c128a7ea46d5d1975f2b3f08c36",
          "topics": [
            "0xddf252ad1be2c89b69c2b068fc378daa952ba7f163c4a11628f55a4df523b3ef",
            "0x000000000000000000000000484826732d75d6a8018bfad3468bd84f64614268",
            "0x0000000000000000000000005da34a7db215111aa19ad75e162be02457f15e0d"
          ],
          "data": "0x00000000000000000000000000000000000000000000000000000000000186a0",
          "blockHash": "0x71c23bb69b3c3d82195227ad75beb5008c746e105ac9bc3768ebec83e538be15",
          "blockNumber": "0x4387f3d",
          "transactionHash": "0x82d03562a1800bc7c9569a072692d067260521cb30a4eced8f968b6084bbcd05",
          "transactionIndex": "0x2",
          "logIndex": "0x2",
          "removed": false
        },
        {
          "address": "0x5da34a7db215111aa19ad75e162be02457f15e0d",
          "topics": [
            "0xddf252ad1be2c89b69c2b068fc378daa952ba7f163c4a11628f55a4df523b3ef",
            "0x0000000000000000000000000000000000000000000000000000000000000000",
            "0x000000000000000000000000484826732d75d6a8018bfad3468bd84f64614268"
          ],
          "data": "0x00000000000000000000000000000000000000000000000000000000000186a0",
          "blockHash": "0x71c23bb69b3c3d82195227ad75beb5008c746e105ac9bc3768ebec83e538be15",
          "blockNumber": "0x4387f3d",
          "transactionHash": "0x82d03562a1800bc7c9569a072692d067260521cb30a4eced8f968b6084bbcd05",
          "transactionIndex": "0x2",
          "logIndex": "0x3",
          "removed": false
        }
      ],
      "logsBloom": "0x00000000000000000000000000000000000000001000000000000000000000000000000000000000000000000400000000000000000000001000000000000000000000000000000000000008000000000000000000000000000000000004000000000000020000000000000000001800000000000000000000000010000800000000000800200000000000000000000000000000000000800000000000001000000000000000000000000000000000000000000000000008000000000000000000000042000000000000000000000000010000000000000000000000000020000000000000000000000000000000000100000000000010000000000000000000",
      "type": "0x2",
      "transactionHash": "0x82d03562a1800bc7c9569a072692d067260521cb30a4eced8f968b6084bbcd05",
      "transactionIndex": "0x2",
      "blockHash": "0x71c23bb69b3c3d82195227ad75beb5008c746e105ac9bc3768ebec83e538be15",
      "blockNumber": "0x4387f3d",
      "gasUsed": "0x21f72",
      "effectiveGasPrice": "0x64",
      "from": "0x484826732d75d6a8018bfad3468bd84f64614268",
      "to": "0x5da34a7db215111aa19ad75e162be02457f15e0d",
      "contractAddress": null
    }
  ],
  "libraries": [],
  "pending": [],
  "returns": {},
  "timestamp": 1759018086978,
  "chain": 545,
  "commit": "c651757"
}