{
  "transactions": [
    {
      "hash": "0x9973ec990182bfc34b7ca2fbb0344cbb29ee518dc5f68b5eb15e09fd1dd6672c",
      "transactionType": "CALL",
      "contractName": null,
      "contractAddress": "0xa3d83ca946697fb88db35dd5dac6e6ace4746951",
      "function": "buyTokens(uint256)",
      "arguments": [
        "500000"
      ],
      "transaction": {
        "from": "0x484826732d75d6a8018bfad3468bd84f64614268",
        "to": "0xa3d83ca946697fb88db35dd5dac6e6ace4746951",
        "gas": "0xbc90",
        "value": "0xde0b6b3a7640000",
        "input": "0x3610724e000000000000000000000000000000000000000000000000000000000007a120",
        "nonce": "0x42",
        "chainId": "0x221"
      },
      "additionalContracts": [],
      "isFixedGasLimit": false
    }
  ],
  "receipts": [
    {
      "status": "0x1",
      "cumulativeGasUsed": "0x8885",
      "logs": [
        {
          "address": "0xa3d83ca946697fb88db35dd5dac6e6ace4746951",
          "topics": [
            "0xddf252ad1be2c89b69c2b068fc378daa952ba7f163c4a11628f55a4df523b3ef",
            "0x000000000000000000000000a3d83ca946697fb88db35dd5dac6e6ace4746951",
            "0x000000000000000000000000484826732d75d6a8018bfad3468bd84f64614268"
          ],
          "data": "0x000000000000000000000000000000000000000000000000000000000007a120",
          "blockHash": "0x8405c82b3d198955e220892946fa159729f4e26f00aaf58692a394aedccb3034",
          "blockNumber": "0x4387790",
          "transactionHash": "0x9973ec990182bfc34b7ca2fbb0344cbb29ee518dc5f68b5eb15e09fd1dd6672c",
          "transactionIndex": "0x0",
          "logIndex": "0x0",
          "removed": false
        }
      ],
      "logsBloom": "0x00000000000000000000000000000000000000000000000000000000000000000000000000000000000000800000000000000000000000001000000000000000000000000000000000000008000000000000000000000000000000000004000000000000000000000000000000000000000000000000000000000010000000000000200000000000000040000080000000000000000000000000001000000000000000000000000000000000400000000000000000000000000000000000000000000042000000000000000000000000000000000000000000000000000000000000000000000000000000000000000000000000000000000000000000000000",
      "type": "0x2",
      "transactionHash": "0x9973ec990182bfc34b7ca2fbb0344cbb29ee518dc5f68b5eb15e09fd1dd6672c",
      "transactionIndex": "0x0",
      "blockHash": "0x8405c82b3d198955e220892946fa159729f4e26f00aaf58692a394aedccb3034",
      "blockNumber": "0x4387790",
      "gasUsed": "0x8885",
      "effectiveGasPrice": "0x64",
      "from": "0x484826732d75d6a8018bfad3468bd84f64614268",
      "to": "0xa3d83ca946697fb88db35dd5dac6e6ace4746951",
      "contractAddress": null
    }
  ],
  "libraries": [],
  "pending": [],
  "returns": {},
  "timestamp": 1759017104252,
  "chain": 545,
  "commit": "c651757"
}