{
  "transactions": [
    {
      "hash": "0x1cd5a952d370545c2913796d3c6b18a4391fcf4ed59025b74625ab45ddbd586e",
      "transactionType": "CALL",
      "contractName": null,
      "contractAddress": "0x9bda12d3f4afff285eed11b19e84e7a2cdfb4561",
      "function": "approve(address,uint256)",
      "arguments": [
        "0x5da34a7DB215111aA19AD75e162Be02457f15e0d",
        "100000000000000000000000"
      ],
      "transaction": {
        "from": "0x484826732d75d6a8018bfad3468bd84f64614268",
        "to": "0x9bda12d3f4afff285eed11b19e84e7a2cdfb4561",
        "gas": "0x91f4",
        "value": "0x0",
        "input": "0x095ea7b30000000000000000000000005da34a7db215111aa19ad75e162be02457f15e0d00000000000000000000000000000000000000000000152d02c7e14af6800000",
        "nonce": "0x7c",
        "chainId": "0x221"
      },
      "additionalContracts": [],
      "isFixedGasLimit": false
    },
    {
      "hash": "0x998351ee3b2384ba9c283cdda457153fdccf38ce09944698d4de215844f6610a",
      "transactionType": "CALL",
      "contractName": null,
      "contractAddress": "0xbfad3c0108f78c128a7ea46d5d1975f2b3f08c36",
      "function": "approve(address,uint256)",
      "arguments": [
        "0x5da34a7DB215111aA19AD75e162Be02457f15e0d",
        "100000000000000000000000"
      ],
      "transaction": {
        "from": "0x484826732d75d6a8018bfad3468bd84f64614268",
        "to": "0xbfad3c0108f78c128a7ea46d5d1975f2b3f08c36",
        "gas": "0xfd53",
        "value": "0x0",
        "input": "0x095ea7b30000000000000000000000005da34a7db215111aa19ad75e162be02457f15e0d00000000000000000000000000000000000000000000152d02c7e14af6800000",
        "nonce": "0x7d",
        "chainId": "0x221"
      },
      "additionalContracts": [],
      "isFixedGasLimit": false
    },
    {
      "hash": "0xf4afeed2088c8ad1d44be086102a5a273812017c2ca201d0c9f7963e76db116f",
      "transactionType": "CALL",
      "contractName": null,
      "contractAddress": "0x5da34a7db215111aa19ad75e162be02457f15e0d",
      "function": "addLiquidity(uint256,uint256)",
      "arguments": [
        "100000000000000000000000",
        "100000000000000000000000"
      ],
      "transaction": {
        "from": "0x484826732d75d6a8018bfad3468bd84f64614268",
        "to": "0x5da34a7db215111aa19ad75e162be02457f15e0d",
        "gas": "0x1a1bc",
        "value": "0x0",
        "input": "0x9cd441da00000000000000000000000000000000000000000000152d02c7e14af680000000000000000000000000000000000000000000000000152d02c7e14af6800000",
        "nonce": "0x7e",
        "chainId": "0x221"
      },
      "additionalContracts": [],
      "isFixedGasLimit": false
    }
  ],
  "receipts": [
    {
      "status": "0x1",
      "cumulativeGasUsed": "0x69ac",
      "logs": [
        {
          "address": "0x9bda12d3f4afff285eed11b19e84e7a2cdfb4561",
          "topics": [
            "0x8c5be1e5ebec7d5bd14f71427d1e84f3dd0314c0f7b2291e5b200ac8c7c3b925",
            "0x000000000000000000000000484826732d75d6a8018bfad3468bd84f64614268",
            "0x0000000000000000000000005da34a7db215111aa19ad75e162be02457f15e0d"
          ],
          "data": "0x00000000000000000000000000000000000000000000152d02c7e14af6800000",
          "blockHash": "0x13b56b78b80a04324bb0970fc93836a237cb48df3e8641f9141073448c7a1712",
          "blockNumber": "0x43891d4",
          "transactionHash": "0x1cd5a952d370545c2913796d3c6b18a4391fcf4ed59025b74625ab45ddbd586e",
          "transactionIndex": "0x0",
          "logIndex": "0x0",
          "removed": false
        }
      ],
      "logsBloom": "0x00000000000000000000000000000000000000000000000000000000000000000000000000000000000000000400000000000000000000001000000000200000000000000000000000000000000000000000000000000000000000000004000000000000000000000000000000000000000000000000000000000000000800000000000800000000000000000000000000000000000000800000000000001000020000000000000000000000000000000000000000000000000000000000000000000040000000000000000000000000000000000000000000000000000000000010000000000000000000000000000000000000000010000000000000000000",
      "type": "0x2",
      "transactionHash": "0x1cd5a952d370545c2913796d3c6b18a4391fcf4ed59025b74625ab45ddbd586e",
      "transactionIndex": "0x0",
      "blockHash": "0x13b56b78b80a04324bb0970fc93836a237cb48df3e8641f9141073448c7a1712",
      "blockNumber": "0x43891d4",
      "gasUsed": "0x69ac",
      "effectiveGasPrice": "0x64",
      "from": "0x484826732d75d6a8018bfad3468bd84f64614268",
      "to": "0x9bda12d3f4afff285eed11b19e84e7a2cdfb4561",
      "contractAddress": null
    },
    {
      "status": "0x1",
      "cumulativeGasUsed": "0x17353",
      "logs": [
        {
          "address": "0xbfad3c0108f78c128a7ea46d5d1975f2b3f08c36",
          "topics": [
            "0x8c5be1e5ebec7d5bd14f71427d1e84f3dd0314c0f7b2291e5b200ac8c7c3b925",
            "0x000000000000000000000000484826732d75d6a8018bfad3468bd84f64614268",
            "0x0000000000000000000000005da34a7db215111aa19ad75e162be02457f15e0d"
          ],
          "data": "0x00000000000000000000000000000000000000000000152d02c7e14af6800000",
          "blockHash": "0x13b56b78b80a04324bb0970fc93836a237cb48df3e8641f9141073448c7a1712",
          "blockNumber": "0x43891d4",
          "transactionHash": "0x998351ee3b2384ba9c283cdda457153fdccf38ce09944698d4de215844f6610a",
          "transactionIndex": "0x2",
          "logIndex": "0x1",
          "removed": false
        }
      ],
      "logsBloom": "0x00000000000000000000000000000000000000001000000000000000000000000000000000000000000000000400000000000000000000001000000000200000000000000000000000000000000000000000000000000000000000000004000000000000000000000000000000000000000000000000000000000000000000000000000000200000000000000000000000000000000000800000000000001000020000000000000000000000000000000000000000000008000000000000000000000040000000000000000000000000000000000000000000000000000000000010000000000000000000000000000000000000000000000000000000000000",
      "type": "0x2",
      "transactionHash": "0x998351ee3b2384ba9c283cdda457153fdccf38ce09944698d4de215844f6610a",
      "transactionIndex": "0x2",
      "blockHash": "0x13b56b78b80a04324bb0970fc93836a237cb48df3e8641f9141073448c7a1712",
      "blockNumber": "0x43891d4",
      "gasUsed": "0xb768",
      "effectiveGasPrice": "0x64",
      "from": "0x484826732d75d6a8018bfad3468bd84f64614268",
      "to": "0xbfad3c0108f78c128a7ea46d5d1975f2b3f08c36",
      "contractAddress": null
    },
    {
      "status": "0x1",
      "cumulativeGasUsed": "0x2e334",
      "logs": [
        {
          "address": "0x9bda12d3f4afff285eed11b19e84e7a2cdfb4561",
          "topics": [
            "0xddf252ad1be2c89b69c2b068fc378daa952ba7f163c4a11628f55a4df523b3ef",
            "0x000000000000000000000000484826732d75d6a8018bfad3468bd84f64614268",
            "0x0000000000000000000000005da34a7db215111aa19ad75e162be02457f15e0d"
          ],
          "data": "0x00000000000000000000000000000000000000000000152d02c7e14af6800000",
          "blockHash": "0x13b56b78b80a04324bb0970fc93836a237cb48df3e8641f9141073448c7a1712",
          "blockNumber": "0x43891d4",
          "transactionHash": "0xf4afeed2088c8ad1d44be086102a5a273812017c2ca201d0c9f7963e76db116f",
          "transactionIndex": "0x4",
          "logIndex": "0x2",
          "removed": false
        },
        {
          "address": "0xbfad3c0108f78c128a7ea46d5d1975f2b3f08c36",
          "topics": [
            "0xddf252ad1be2c89b69c2b068fc378daa952ba7f163c4a11628f55a4df523b3ef",
            "0x000000000000000000000000484826732d75d6a8018bfad3468bd84f64614268",
            "0x0000000000000000000000005da34a7db215111aa19ad75e162be02457f15e0d"
          ],
          "data": "0x00000000000000000000000000000000000000000000152d02c7e14af6800000",
          "blockHash": "0x13b56b78b80a04324bb0970fc93836a237cb48df3e8641f9141073448c7a1712",
          "blockNumber": "0x43891d4",
          "transactionHash": "0xf4afeed2088c8ad1d44be086102a5a273812017c2ca201d0c9f7963e76db116f",
          "transactionIndex": "0x4",
          "logIndex": "0x3",
          "removed": false
        },
        {
          "address": "0x5da34a7db215111aa19ad75e162be02457f15e0d",
          "topics": [
            "0xddf252ad1be2c89b69c2b068fc378daa952ba7f163c4a11628f55a4df523b3ef",
            "0x0000000000000000000000000000000000000000000000000000000000000000",
            "0x000000000000000000000000484826732d75d6a8018bfad3468bd84f64614268"
          ],
          "data": "0x00000000000000000000000000000000000000000000152d02c7e14af6800000",
          "blockHash": "0x13b56b78b80a04324bb0970fc93836a237cb48df3e8641f9141073448c7a1712",
          "blockNumber": "0x43891d4",
          "transactionHash": "0xf4afeed2088c8ad1d44be086102a5a273812017c2ca201d0c9f7963e76db116f",
          "transactionIndex": "0x4",
          "logIndex": "0x4",
          "removed": false
        }
      ],
      "logsBloom": "0x00000000000000000000000000000000000000001000000000000000000000000000000000000000000000000400000000000000000000001000000000000000000000000000000000000008000000000000000000000000000000000004000000000000020000000000000000001800000000000000000000000010000800000000000800200000000000000000000000000000000000800000000000001000000000000000000000000000000000000000000000000008000000000000000000000042000000000000000000000000010000000000000000000000000020000000000000000000000000000000000100000000000010000000000000000000",
      "type": "0x2",
      "transactionHash": "0xf4afeed2088c8ad1d44be086102a5a273812017c2ca201d0c9f7963e76db116f",
      "transactionIndex": "0x4",
      "blockHash": "0x13b56b78b80a04324bb0970fc93836a237cb48df3e8641f9141073448c7a1712",
      "blockNumber": "0x43891d4",
      "gasUsed": "0x11da2",
      "effectiveGasPrice": "0x64",
      "from": "0x484826732d75d6a8018bfad3468bd84f64614268",
      "to": "0x5da34a7db215111aa19ad75e162be02457f15e0d",
      "contractAddress": null
    }
  ],
  "libraries": [],
  "pending": [],
  "returns": {},
  "timestamp": 1759020466257,
  "chain": 545,
  "commit": "c651757"
}